:020000040800F2
:10000000D0720020A1020008A9020008AB0200087B
:10001000AD020008AF020008B102000800000000B5
:1000200000000000000000000000000009040008BB
:10003000B502000800000000A1040008B104000897
:10004000BB020008BB020008BB020008BB0200089C
:10005000BB020008BB020008BB020008BB0200088C
:10006000BB020008BB020008BB020008BB0200087C
:10007000BB020008BB020008BB020008BB0200086C
:10008000BB020008BB020008BB020008BB0200085C
:10009000BB020008BB020008BB020008BB0200084C
:1000A000BB020008BB020008BB020008BB0200083C
:1000B000BB020008BB020008BB020008BB0200082C
:1000C000BB020008BB020008BB020008BB0200081C
:1000D000BB020008BB020008BB02000889A8000898
:1000E000BB020008BB020008BB020008BB020008FC
:1000F000BB020008BB020008BB020008BB020008EC
:10010000BB020008BB020008BB020008BB020008DB
:100110008DA70008E1A70008BB020008BB02000889
:10012000BB020008BB020008BB020008BB020008BB
:10013000BB020008BB020008BB020008BB020008AB
:10014000BB020008BB020008BB020008BB0200089B
:10015000BB020008BB020008BB020008BB0200088B
:10016000BB020008BB020008BB020008BB0200087B
:10017000BB020008BB020008BB020008BB0200086B
:10018000BB020008BB02000800F002F800F074F89F
:100190000AA090E8000C82448344AAF10107DA45E2
:1001A00001D100F069F8AFF2090EBAE80F0013F0C0
:1001B000010F18BFFB1A43F001031847A84B0200B8
:1001C000C84B02000A444FF0000C10F8013B13F03A
:1001D000070408BF10F8014B1D1108BF10F8015BA0
:1001E000641E05D010F8016B641E01F8016BF9D193
:1001F00013F0080F1EBF10F8014BAD1C0C1B09D1EA
:100200006D1E58BF01F801CBFAD505E014F8016B5B
:1002100001F8016B6D1EF9D59142D6D370470000ED
:100220000023002400250026103A28BF78C1FBD8FF
:10023000520728BF30C148BF0B607047662915F0D0
:100240003D80642900F08081002070471FB514F0C4
:1002500081FF00F0BBFF04000020002114F0B4F87F
:10026000401C60600020002114F098F8E06000F06D
:100270008FFC1FBD10B510BD01F08CFA114603B400
:1002800013F09EFD03BCFFF7E1FF13F0FBFD01F04F
:10029000C7FA03B4FFF7EEFF03BC01F071FA0000E8
:1002A0000948804709480047FEE7FEE7FEE7FEE70A
:1002B000FEE7FEE7FEE7FEE7FEE7FEE70448054946
:1002C000034A054B70470000ADA4000889010008EF
:1002D000D06E0020D0720020D06E0020DFED460AE4
:1002E00060EE200AF5EEC00AF1EE10FA38BFF1EE2A
:1002F000600ABDEEE01ADFF808C1F7EE004AB0EE82
:10030000085AB8EEC11AB5EEC00A70EEC10A9FEDE8
:100310003B1A20EE811AFCEEC10A10EE902AC2F3BD
:10032000080200EE902A02F180030CEB8202F8EE44
:10033000600AD2ED001AC3F308030CEB8303F1EE5D
:10034000612A71EE600AD2ED011A93ED001A93ED65
:10035000012AF1EE613A74EEE01A32EE413A61EEB2
:10036000811A40EE821A32EEA32ADFED261A22EE1F
:10037000214AB0EE002A42EE223A02EE434A23EE30
:10038000053A03EEE13A00EE843A34EEE04A20EE1C
:10039000833A02EEA13A00EE831A81ED001A92ED43
:1003A000001AD2ED013AD3ED002A24EE014A93ED72
:1003B000013A00EEA34A32EE834A73EEC13A02EEEE
:1003C000223A24EE214A02EE634A63EE853A43EE76
:1003D000613A40EE843A20EEA32A02EEA12A00EE12
:1003E000821AF1EE10FA80ED001A3CBFB1EE410A1C
:1003F00080ED000A70470000610B363B00000044AE
:1004000074350208DB0F493C1EF0040F0CBFEFF3FC
:100410000880EFF30980816911F8021C91BB01B5D6
:1004200090E80F10E047BDE800508CE80300244B33
:1004300093E80600914208BF704741B91EF0100FC3
:1004400010D12049086820F0010008600AE02CE97A
:10045000F00F1EF0100F08BF2CED108AC1F838C045
:1004600081F822E01A6092F82210906B61F0FF0E82
:100470001EF0100F08BFB0EC108AB0E8F00F80F348
:1004800009887047104A13689942FAD801B552F8A2
:1004900021C00FC8E047BDE80050CCF8000070470D
:1004A00001B501F065FEBDE80140EFF3098CBEE740
:1004B00001B502F0F7F8BDE80140EFF3098CB6E7AB
:1004C0000C1C002034EF00E0905401080FB41CB560
:1004D000084B06AA7B4469460090059800F0D5FDBC
:1004E00004460020694600F0E3FD20461CBC5DF890
:1004F00014FB0000D90B000070B504468569006844
:10050000C10601D5302600E02026C00707D070BD07
:10051000D4E9012130469047206A401C20626D1EBC
:10052000F6D570BD70B5044685690078C00707D15F
:1005300070BDD4E9012120209047206A401C206230
:100540006D1EF6D570BD00002DE9F0410646002471
:1005500010687529314616A510D0AFF30080002829
:1005600002DA404213A507E031688A0701D512A5D7
:1005700002E0490704D511A5012401E0AFF3008092
:1005800000210A2206F1240709E0B0FBF2FCB0FBCF
:10059000F2F302FB1C00303078541846491C002846
:1005A000F3D123462A463046BDE8F04100F002BBB5
:1005B000000000002D0000002B00000020000000C3
:1005C0002DE9F05F894604464FF0000ADFF874B168
:1005D000FB44C0F820A02046E1688847002874D07A
:1005E000252806D0D4E901219047206A401C2062CA
:1005F000F1E700265F462046E16888472028054647
:1006000007DB312D05D2781910F8200C08B106430C
:10061000F1E7B00701D526F00406C4F81CA00027B6
:10062000C4F818A02A2D09D0284613F095FB38B33A
:1006300004EB8708303DC8F8185019E059F8041B3E
:10064000204604EB87029161E1688847012F054647
:1006500018D1E069002820DA26F020061DE0D8F83D
:10066000180000EB800005EB40003038C8F8180097
:100670002046E1688847054613F06EFB0028EED15E
:10068000012F0AD02E2D08D12046E16888477F1C13
:100690000546022F46F02006C4DBA069002803DAD5
:1006A000404246F00106A061F00701D026F0100696
:1006B0006C2D0BD0682D09D04C2D39D06A2D35D03A
:1006C000742D35D07A2D33D016E038E0E1682F460E
:1006D00020468847B842054609D16C2F26D04FF4F2
:1006E0008060E168064320468847054604E06C2F99
:1006F0001AD04FF4807006430DB3A5F141001928BC
:1007000002D8203546F400664A462946204626602F
:100710004E46FFF793FD80B101280BD0F61D26F061
:10072000070000F1080956E74020E4E78020D8E7F9
:100730000020D6E706F104094DE7284652E7206A73
:10074000BDE8F09F7C4002000FB400B58DB010A949
:10075000099000910B904FF0FF300A9000200C9010
:10076000064878440690064878446A4607900F99F0
:1007700009A800F0B7FC0DB05DF814FB9F0900005C
:10078000B70900002DE9FF5F1D464FF0FF3B914682
:100790004FF000085F46D5E90146A96901987F1C22
:1007A0008847296A824688470028F6D1BAF1FF3F78
:1007B0000CD0002E24F4C06419DD600614D5BAF103
:1007C0002B0F09D0BAF12D0F0ED103E0584604B01B
:1007D000BDE8F09F44F48064A96901987F1C8847B4
:1007E000761E8246002E02DDBAF1300F03D0B9F139
:1007F000000F26D032E0A969761E01987F1C44F4D0
:1008000000748847002E824605DDBAF1780F06D0C5
:10081000BAF1580F03D0B9F1000F10D01EE0B9F1B2
:10082000000F02D0B9F1100F18D1A969761E0198F6
:100830007F1C24F4007488478246102002E00820C0
:1008400000E00A20814609E0A96908FB0908761E34
:1008500001987F1C44F4007488478246002E05DD11
:100860004946504600F029FC0028EDDAE969019874
:100870008847A00502D46FF00100A8E7E00725D162
:10088000600613D5600502D5C8F1000000E04046BF
:1008900029680A1D2A600968220501D5087015E03B
:1008A000220701D5088011E008600FE02868011DCB
:1008B00029600068210502D580F8008006E0210744
:1008C00002D5A0F8008001E0C0F8008038467EE73D
:1008D00040EA0103024630B59B0710D14FF00134C6
:1008E00000E008C208C91D1B9D4315EAC41FF8D0CB
:1008F00013F0FF0102F8011B0DD01B0AF8E711F8F5
:10090000013B002B02F8013B05D011F8013B002B05
:1009100002F8013BF3D130BD10B5431C02E010F8E2
:10092000011B71B18107FAD14FF0013202C88C1A54
:100930008C4314EAC211F9D0C01A0A0603D0C01EB3
:1009400010BDC01A10BD0A0401D0801E10BD0902DE
:10095000FCD0401E10BD032A40F2308010F0030C82
:1009600000F0158011F8013BBCF1020F624498BF02
:1009700011F801CB00F8013B38BF11F8013BA2F19F
:10098000040298BF00F801CB38BF00F8013B11F01A
:10099000030300F06B80083AC0F0088051F8043B74
:1009A000083A51F804CBA0E80810F5E7121D5CBF27
:1009B00051F8043B40F8043BAFF30080D20724BF5A
:1009C00011F8013B11F801CB48BF11F8012B24BFEE
:1009D00000F8013B00F801CB48BF00F8012B70473D
:1009E000431A28BF9A427FF6B6AF032A1044114437
:1009F00040F2268010F0030F1EBF11F8013D521E79
:100A000000F8013D10F0030F7FF4F6AF11F003037F
:100A100000F0B283083AC0F00B8051F8043D083A68
:100A200051F804CD40F8043D40F804CDFFF7F3BF82
:100A3000121D5CBF51F8043D40F8043DAFF3008047
:100A4000D20724BF11F8013D11F801CD48BF11F8BC
:100A5000012C24BF00F8013D00F801CD48BF00F88B
:100A6000012C704701B5FFF776FF01BD10B5203AA4
:100A7000C0F00B80B1E81850203AA0E81850B1E857
:100A80001850A0E81850BFF4F5AF5FEA027C24BF0D
:100A9000B1E81850A0E8185044BF18C918C0BDE804
:100AA00010405FEA827C24BF51F8043B40F8043BCD
:100AB00008BF7047D20728BF31F8023B48BF11F882
:100AC000012B28BF20F8023B48BF00F8012B7047DC
:100AD00001F0FF03114601B543EA032242EA024254
:100AE00000F00BF801BD02F0FF0343EA032242EAE3
:100AF000024200F002B84FF000020429C0F0128058
:100B000010F0030C00F01B80CCF1040CBCF1020FC0
:100B100018BF00F8012BA8BF20F8022BA1EB0C0195
:100B200000F00DB85FEAC17C24BF00F8012B00F88B
:100B3000012B48BF00F8012B70474FF0000200B5B1
:100B4000134694469646203922BFA0E80C50A0E8F0
:100B50000C50B1F12001BFF4F7AF090728BFA0E89E
:100B60000C5048BF0CC05DF804EB890028BF40F86A
:100B7000042B08BF704748BF20F8022B11F0804FAC
:100B800018BF00F8012B704770477047704700008E
:100B900070B5064C7C44064D7D4403E0206820443B
:100BA0008047241DAC42F9D170BD000018430200FB
:100BB000204302002DE9F0470D469946924604462F
:100BC00000F124080168880604D5E06921F01001CD
:100BD000216000E00120A84201DD471B00E0002762
:100BE000A1697A1902EB0900081AA0612078C006F1
:100BF00002D42046FFF780FC002608E0D4E901215A
:100C00001AF806009047206A401C761C20624E4568
:100C1000F4DB2078C0060AD52046FFF76DFC06E01D
:100C2000D4E9012130209047206A401C2062381E00
:100C3000A7F10107F4DC07E0D4E9012118F8050069
:100C40009047206A401C2062281EA5F10105F3DCB4
:100C50002046FFF767FC2078000602D50220BDE899
:100C6000F0870120FBE770472DE9FF4F0C461E4639
:100C70004FF0FF378BB0D2E90001DDF860800A90B9
:100C80008A46C1F30A5505B93D460021084614F0CD
:100C900005FBBAF1000F00F4400005DA00EB80001C
:100CA0004FF4400101EA50004FEA9059B9F1010FA9
:100CB00000DDB9460A9850EA4A000ED044F61050BA
:100CC000A5F2FF3545432F14B8F1000F1ED0754231
:100CD000291E1EDDC9F100021CE0B8F1010F4FF022
:100CE000000001D0302103E0F24305E02154401C14
:100CF000B042FBDB30460022002121540B99C1F8A1
:100D00000880C1E900200FB0BDE8F08FBD1B6D1C4D
:100D1000DEE74A4600DA694206A800F0A5FC06AB09
:100D200093E8070003AB83E8070050460A9902F0F6
:100D3000A7FC8DE80700A0F500501F38009003982D
:100D4000002D09DD42F21F014A46084403A9039021
:100D5000684602F006FF08E0A0F500504A461F383A
:100D600003A90390684602F010FF8DE80700000415
:100D7000000C03D04FF0FF30410800E01046B8F1FE
:100D8000000F03D00022009215461EE0751E05D408
:100D900000F021FA303262556D1EF9D5B3460122BA
:100DA000084302D000227F1C04E02078302801D1C3
:100DB00000227F1E002A099786D01DE0112D07DA38
:100DC00000F009FA303262556D1C50EA0102F5D18B
:100DD000084302D00098C8B10EE00021681E05E06B
:100DE000235C625C63542254401E491C8142F7DB41
:100DF000AB46A81B401E0990002004F80B000B987E
:100E0000099AC0F80880C0E9002B7CE711264FF052
:100E1000000859E72DE9F04F88460446D21D22F01C
:100E2000070191B0D1E90001CDE90A0112F0B6FD48
:100E300002460B98C00F01D02D2007E020688107E3
:100E400001D52B2002E0202101EAC000032A0990ED
:100E500001D0072A05DB03464146204600F00AFA86
:100E60000BE12078800601D5E06900E00620B8F1AA
:100E7000650F814606D0B8F1660F18D0B8F1670F3C
:100E800070D131E00020B9F1110F009001DB112386
:100E900001E009F101030AAA01A90CA8FFF7E4FE89
:100EA000DDE90C70002609F10105834647E00120C9
:100EB0004B4600904FF000470AAA01A90CA8FFF783
:100EC000D3FEDDE90DB00C995D46002610B909F19D
:100ED00001000D18B9EB050003D4C0F1FF3609F18C
:100EE0000105A5EB09002BE0B9F1010F01DA4FF084
:100EF00001090020B9F1110F0090484601DD1123CE
:100F000000E003460AAA01A90CA8FFF7ADFEDDE93F
:100F10000C704D4600268346207800070AD4AB4566
:100F200000DA5D4601A8012D04DD411911F8011C0C
:100F3000302907D04F4502DA17F1040F04DA0120F7
:100F400082460FE06D1EEEE7002F02DCED1B3E44F3
:100F500003E0781CA84200DD7D1CB81B00F1010AEB
:100F60004FF000472078000703D4AA4501DB4FF07B
:100F7000FF3A0021B7F1004F0DF143088DF84310FF
:100F800024D002202B23002F01DA7F422D230A21B7
:100F9000021EA0F1010000DC5FB197FBF1FC97FBA2
:100FA000F1F201FB1C7C17460CF1300C08F801CD66
:100FB000EEE7A8F1010003702188090501D545215C
:100FC00000E06521A0F1010800F8011C09980FA9B3
:100FD000A1EB0807FF1D00B10120411901EBEA70E8
:100FE000A1693844081A401EA0612078C00602D4C6
:100FF0002046FFF781FA099828B1D4E901219047EA
:10100000206A401C20622078C00622D52046FFF7C7
:1010100073FA1EE0002E04DBB34502DD01A8805DFB
:1010200000E03020D4E901219047206A401C206272
:10103000761CAAF101005FEA000A0AD100F0C6F8A6
:10104000C0680168405CD4E901219047206A401CD7
:101050002062281EA5F10105DCDC07E0D4E90121AE
:1010600018F8010B9047206A401C2062381EA7F137
:101070000107F3DC2046FFF755FA032011B043E6E1
:1010800001694A1C02610878704700B58FB0CDE94C
:1010900001310021059105497944CDE9031011463C
:1010A0006846FFF78DFA0FB000BD0000E5FFFFFFB7
:1010B0000A6802F8010B0A6070473A2800D23038FB
:1010C00020F02002412A01D3A2F13700884201D347
:1010D0004FF0FF3070470000026811441378016040
:1010E00018467047D16005497944516104497944F3
:1010F000116200211161114600F0FCB8EDFFFFFF05
:101100006F010000426842B1016811F8013B23B150
:10111000521EC0E90012184670470121C160881EA6
:10112000704742685AB1C368016843B983688B420B
:1011300005D0491E521CC0E90012002070474FF034
:10114000FF30704710B500F003FBBDE8104000F021
:10115000F9BA431A28BF9A427FF688AC104410F0BF
:10116000030F11441EBF11F8013D521E00F8013D4E
:1011700010F0030F7FF4F6AF103AC0F00A8010B5FC
:1011800031E91850103A20E91850BFF4F9AFBDE822
:101190001040530724BF31E9081020E9081044BF6C
:1011A00051F8043D40F8043D12F0030F08BF7047AA
:1011B000D20728BF31F8023D48BF11F8012C28BFE3
:1011C00020F8023D48BF00F8012C704710B500F030
:1011D000DDFA203010BD30B5B0F10A024FEA900EB2
:1011E00071F100034EEA817EB0EB0E0061EB9101DC
:1011F0004FEA101E4EEA017E10EB0E0041EB11117A
:101200004FEA102E4EEA016E10EB0E0041EB112159
:101210004FEA104E4EEA014E10EB0E0041EB114129
:10122000401841F100014FEAD00040EA41704FEA16
:10123000D10110EB80054FEA810444EA907444EB3D
:1012400001046D1944EB0404521BA3414FF0000349
:1012500048BF0A3200D530BD401C41F1000130BD0D
:1012600010B5044600F0BCFA0068005D00F0010013
:1012700010BD00002DE9F0411F4604460326016819
:10128000072A01F4006004DB08B116A505E016A5E5
:1012900003E008B115A500E015A521F010002060BD
:1012A000A069C01EA0610FB1401EA0612046FFF7DB
:1012B00023F94FB1D4E9012138469047206A401CF8
:1012C0002062C01C206206E0206AFAE7D4E901210E
:1012D00015F8010B9047761EF8D22046FFF722F949
:1012E000BDE8F0814E414E006E616E00494E4600F1
:1012F000696E66002DE9F34F4FF0000A0C46564622
:101300008DB001200C9001F10C000B9062690B98DC
:1013100001219047051E2DD0252D2CD0216A88470C
:10132000C0B162690B9801219047216A8847002863
:10133000F7D16269411E0B98904700E0761CA169C5
:101340000D988847216A88470028F7D1E1690D98F0
:101350008847DBE7A1690D988847A842074601D175
:10136000761CD3E7E1690D9888477F1C02D1BAF15A
:10137000000F6FD06BE162690B9800273D4639463C
:1013800090472A2804D162690B98012190470125D2
:10139000DFF8D08262690B9801219047A0F13001FB
:1013A0000A290AD24745E5DC07EB870100EB410734
:1013B000303FDFD445F01005ECE7E90601D46FF0CB
:1013C00000476C280AD04C2814D0682815D06A2809
:1013D0000DD074281CD07A281AD01DE062690B98B1
:1013E000012190476C2802D045F0040514E045F037
:1013F00002050DE045F020050AE062690B98012125
:101400009047682802D045F0080505E045F40065DE
:1014100062690B9801219047C4E9015765283DD0C6
:1014200019DC58287AD00CDC452837D004DC252874
:1014300026D041289ED131E046282FD0472899D187
:101440002CE05B2877D0612828D063287CD06428E2
:1014500023D15AE0F6E06F2848D008DC66281DD07A
:1014600067281BD0692821D06E2816D127E0702864
:1014700045D0732868D0752847D078280DD14DE025
:10148000A1690D988847252805463FF469AFE169B1
:101490000D9888476D1C3FF46AAFD8E00D9923463C
:1014A0006A466FF00100AFF30080C5E045F04000F0
:1014B00023464FF000026060A80736D43EE0E807FC
:1014C0007FF447AF2068011D21600068290501D520
:1014D00006701BE7290701D5068017E7A90703D582
:1014E000F117C0E9006111E706600FE745F0400021
:1014F00023464FF008026060A80716D41EE040F6AD
:101500000E0125EA0100606016E045F04000234628
:101510004FF00A026060A80707D40FE045F04000D2
:101520006060A80708D5234610220D996FF00100CE
:10153000AFF3008080E007E0102223460D996FF0A2
:101540000100FFF71FF977E04FF0000963284F46CD
:10155000C8464B46CB4602D05B2806D038E0E806AA
:1015600001D40120A060012732E06269D4F80CB0F8
:101570000B98012190475E2807D14FF00109494699
:101580006269D4F80CB00B989047216939B90021F1
:101590000A4603AB43F82120491C0829FADBD8B3DB
:1015A000216949B308F1010862690B98012190474C
:1015B0005D28F4D1B9F1000F09D0002003A951F83A
:1015C0002020D24341F82020401C0828F7DB03AB41
:1015D0002069002820794FEA40701ED05B462246E1
:1015E000CDF80080CDE901970D9900286FF001003A
:1015F00020DAAFF300801FE0C11703AA00EBD1612E
:101600004B1121F01F0102EB8302411A13680120E4
:10161000884003431360C7E719E00D99224600286C
:101620006FF00100009702DAAFF3008004E0AFF33F
:10163000008001E0AFF3008000280ADA401C06D1E8
:101640000C9820B14FF0FF300FB0BDE8F08F50463E
:10165000FAE7E90701D10AF1010A064400200C90DB
:1016600054E60000CCCCCC0C2DE9F0478146164660
:101670008AB0334878440DC88DE80D00304878446E
:10168000801C03AC0DC884E80D0041F69B30084473
:10169000372190FBF1F290FBF1F5A5F1800501FBFC
:1016A00012041B3C02D56442012000E00020DFF858
:1016B00090A080460027FA44AAF1BE0A0DE0E00798
:1016C00009D03246684607EB47010AEB810102F078
:1016D0005CFA8DE8070064107F1C002CEFD1184FD6
:1016E0007F44AC3F18E0E80714D007EB04100DF17D
:1016F000180A90E80E008AE80E00C068F04201D196
:1017000098190890324606A903A802F03EFA03ABE6
:1017100083E807006D10641C002DE4D13246694651
:10172000B8F1000F03A802D002F01BFA01E002F0AA
:101730002CFAC9E90001C9F808200AB0BDE8F08711
:1017400068300200002801D000F01AB8704700008D
:1017500010B5002102A000F06CF8012010BD0000BF
:101760005349475056464E3A205075726520766967
:10177000727475616C20666E2063616C6C656400C8
:1017800001491820ABBEFEE7260002000048704762
:10179000742300207546FFF7F9FFAE460500694641
:1017A000534620F00700854618B020B5FEF786FDA9
:1017B000BDE820404FF000064FF000074FF0000852
:1017C0004FF0000B21F00701AC46ACE8C009ACE8D3
:1017D000C009ACE8C009ACE8C0098D4670470000FC
:1017E00010B5FFF7F3FC001D10BD00BFDD2B01009D
:1017F0001FB584B000200A9C06AB04AA02A900947D
:10180000AFF3008018B1DDE9020108B010BD034854
:10181000204000F06FF800200146F6E70000207C31
:1018200010B50446AFF300802046BDE81040FEF737
:1018300030BD70B505460C460A2000E06D1C00F076
:1018400051F835B128780028F8D102E0641C00F086
:1018500049F814B120780028F8D1BDE870400A207A
:1018600000F040B84FF0013C50F8042B51F8043B15
:101870009A4221D1A2EB0C03934313EACC1317D164
:1018800050F8042B51F8043B9A4215D1A2EB0C03FB
:10189000934313EACC130BD150F8042B51F8043BBB
:1018A0009A4209D1A2EB0C03934313EACC13DBD089
:1018B0004FF00000704700BFD01A01BAB1FA81F1B1
:1018C00001F0180122FA01F0CB40C1F12001DBB296
:1018D000C0B2C01A2CFA01F3D11A914311EAC31114
:1018E000E6D1704708B569468DF800000320ABBE0D
:1018F00008BD704710B500F005F8BDE81040FFF7CF
:1019000021BF000010B5022803D0410103D50DA16D
:1019100012E0002010BD010101D50FA10CE0C100B3
:1019200001D511A108E0810001D512A104E0400019
:1019300001D513A100E0002115A0FFF77AFF0120D7
:1019400010BD0000496E76616C6964204F7065724D
:101950006174696F6E0000004469766964652042B5
:1019600079205A65726F00004F766572666C6F77EA
:1019700000000000556E646572666C6F77000000B1
:10198000496E657861637420526573756C740000EC
:101990005349474650453A2041726974686D6574F1
:1019A000696320657863657074696F6E3A20000022
:1019B00010B500F1280151E8002F12B9BFF32F8FA5
:1019C00004E0531E41E8003404B1F4E78AB12C303E
:1019D00001210BE0821CD2E84F3FC2E8441F04B152
:1019E000F9E713F0FF0F08BF10BD083000680028AA
:1019F000F0D1002010BD84465CF8303F93B110B5A3
:101A00004FF0000E05E0CB78D4789C420FD253689B
:101A100096461A46002AF6D10022C1E9012E00F1AD
:101A20002C0207E00022C1E90122C1620AE0C1E9FB
:101A3000012E0832BEF1000F116018BF0EF1040C28
:101A4000BDE81040CCF80010283050E8001F4A1CB8
:101A500040E8002303B1F8E77047D1E9012C02F117
:101A60000803002A08BF00F12C03C3F800C0D1E925
:101A700001210B1D002908BF00F130031A607047D7
:101A800001480068704700BF10E000E00748017897
:101A9000012905D10021017005484FF080610160E6
:101AA0000448016841F0010101607047D42300201F
:101AB00004ED00E010E000E04FF0FF307047000060
:101AC00040B10B490968B1FBF0F0411E0020B0EBBA
:101AD000116F02D04FF0FF307047064AFF2313709A
:101AE000054A0623136051600449906008707047EE
:101AF0005014002023ED00E010E000E0D42300208B
:101B000010B5930712D400F12803D00718D153E879
:101B1000000F084203D1BFF32F8F002005E020EA19
:101B2000010243E8002404B1F1E710BD806AD20746
:101B300000EA010315D1002B18BF10BD002010BD15
:101B400053E8000F00EA01028A4203D0BFF32F8F4F
:101B5000002005E020EA010243E8002404B1EFE799
:101B600010BD8B4218BF002010BD000080B5124A86
:101B70004FF0000E02F1440C624606E01A699142F1
:101B80000BD3891A03F10C029E461368002BF5D182
:101B90000022C0E902E2016106E0C0E902E301615E
:101BA00098601A69511A1961BEF1000F18BF0EF141
:101BB0000C0CCCF8000080BDF81B0020C16839B1C6
:101BC00002690B691A440A6150F8082F8A6000E024
:101BD00008300068044A00F10C03002808BF02F135
:101BE00044031960704700BFF81B0020EFF3058124
:101BF00029B9EFF3108111B9EFF3118111B16FF031
:101C000005007047DFF804C000DF70478D29000829
:101C1000EFF3148010F0010F08D0EFF3058028B91E
:101C2000EFF3108010B9EFF3118010B10448007A7F
:101C30007047DFF808C000DF704700BFA129000827
:101C4000F81B0020EFF3058028B9EFF3108010B9DE
:101C5000EFF3118010B10348C0687047DFF808C087
:101C600000DF7047F81B0020AD290008EFF3058066
:101C700028B9EFF3108010B9EFF3118010B16FF0B5
:101C800005007047DFF804C000DF7047B92900087D
:101C9000EFF3058028B9EFF3108010B9EFF311804E
:101CA00010B16FF005007047DFF804C000DF704727
:101CB000312B0008F8B50546EFF3058014460E46B3
:101CC00028B9EFF3108010B9EFF3118000B36FF073
:101CD00003001DB313BB0EB3297808291ED1687801
:101CE00098B12846FFF764FE074677B16A6A07F1A4
:101CF0000C013046FEF72FFE0CB1F8782070384604
:101D0000FD6000F07DFA002008E06FF0020005E0C1
:101D1000DFF80CC028463146224600DF01B0F0BD96
:101D2000BD2B0008EFF305832BB9EFF3108313B934
:101D3000EFF311830BB100207047DFF808C000DF1C
:101D4000704700BFAD2C00082DE9F0410646EFF3C7
:101D5000058090460D4628B9EFF3108010B9EFF3D7
:101D6000118038B36FF003070EB303BBFDB13078B9
:101D700008281CD17078C0B106F10C0000F0F0F812
:101D8000044694B1726A04F10C002946FEF7E3FDA3
:101D900040F20710002720802046A77084F80380B7
:101DA000C4E9015600F02CFA01E06FF00207384652
:101DB000BDE8F081DFF80CC030462946424600DF1E
:101DC000BDE8F081E52D0008EFF305822AB9EFF3B5
:101DD000108212B9EFF3118212B16FF00500704753
:101DE000DFF804C000DF7047AD2E0008EFF3058177
:101DF00029B9EFF3108111B9EFF3118111B16FF02F
:101E000005007047DFF804C000DF7047452F000869
:101E1000EFF3058129B9EFF3108111B9EFF31181C7
:101E200009B100207047DFF808C000DF704700BF2D
:101E300019300008EFF3058129B9EFF3108111B9CA
:101E4000EFF3118111B16FF005007047DFF804C0A6
:101E500000DF704785300008B0B50023D0B3C9B3A8
:101E6000032A37D886460F315EF8084F21F0070C59
:101E7000DEF804102346A3EB0E0421F00305641BD7
:101E8000644505D21C689E46002CF1D1002321E058
:101E9000D0E9004363444360204450F8044C9C4222
:101EA0003EBF08384360DEF8041069B1DEF8000078
:101EB00021F0030141F80E004CEA02007144486031
:101EC000CEF800108E4603E04CEA0200CEF8040083
:101ED0000EF108031846B0BD80B5002218B311B347
:101EE00000F10803A1F1080C4FF0000E1A466245FC
:101EF00005D013689646002BF8D1002213E051F864
:101F0000043C4268BEF1000F23F00303A2EB03027E
:101F100042604FF0010219BFDCF80000CEF800006B
:101F2000002041F8040C104680BD08B1420702D0E1
:101F300000221046704700221829FAD311F0070337
:101F4000F7D11022C0E900120144A1F10803836017
:101F5000002341F8083C81684A600122C360E8E739
:101F600008B3B0B5014604C951E8003F9A4202D80F
:101F7000BFF32F8F04E05C1C41E8004505B1F3E797
:101F800001688B42BDE8B0400DD200F1140151E868
:101F9000000F10B9BFF32F8F04E0026841E800235F
:101FA00003B1F4E7704700207047B0B510B3C268C2
:101FB0008A421FD802698A421CD9021D52E8003F9A
:101FC00013B9BFF32F8F04E05C1E42E8004505B152
:101FD000F4E793B1143002680A60BFF35F8F50E8F2
:101FE000002F0B689342F6D140E8001404B1F2E7E9
:101FF0000020B0BD6FF00300B0BD6FF00200B0BDB7
:1020000084460020BCF1000F18BF002921D002B384
:10201000FBB180B54FF0000E02FB0130CCE9001E91
:10202000CCE90223CCE90403481EC1F1010E194694
:1020300000FB02FC04E088180EF1010E0860014666
:10204000BEF1000FF7D1002043F80C000120BDE8DD
:1020500080407047F8B50446607800285ED0A078CC
:10206000A8B3E5686878002858D028462146FFF7CD
:10207000F4FC002005F10C06214660703046FFF7A5
:1020800094FFA868002849D04078932846D130466C
:10209000FFF766FF0446002C40D0284600F016FAF1
:1020A000002100220646002700F0E2FA304600F048
:1020B00071FA06466A6A04F10C00B168FEF74BFC3F
:1020C00040F207102080A770F068E07027E0A56854
:1020D000687818B3A86810B3407883281FD12846C1
:1020E00000F0F4F9002100220646002700F0C0FAB3
:1020F000304600F04FFA06466A6A04F10C01B068F7
:10210000FEF729FCF06808B1E1780170677005F10D
:102110000C002146BDE8F840FFF747BFF8BD284650
:102120002146BDE8F840FFF766BC2DE9F0410446C2
:1021300000274FF0010815E0E8786C69000711D519
:102140002F76A86870B1284600F0C0F9002100225F
:10215000064600F08DFAEE60F06AC5E90470F5629B
:1021600085F818802546002DE6D1BDE8F0810000F5
:10217000F8B5224C4FF6FF7604F1560504F15A07E4
:1021800027E0D7E85F1F4A1C904200D80022C7E82A
:10219000532F03B1F5E788B2E16D51F82000002814
:1021A00026D001780139062913D8DFE801F004129E
:1021B00007120A0D1000216E88470AE0616E8847F9
:1021C00007E0A16E884704E0E16E884701E0216FD7
:1021D0008847B4F85400D5E85F1F11B9BFF32F8FBB
:1021E00004E04A1EC5E8532F03B1F4E73142C8D1D9
:1021F0000020BDE8F84000F00DB900BFF81B00203A
:1022000070B501461948B0F8542000F15603D3E8E0
:102210005F4FA24202D8BFF32F8F04E0651CC3E8D2
:10222000565F06B1F3E7A3B293421AD200F1580306
:10223000D3E85F4F651CAA4200D80025C3E8565F6B
:1022400006B1F5E7C36DA2B243F82210417A002926
:1022500019BF0121817206484FF0805108BF01600B
:1022600070BD0220BDE8704011F036BEF81B0020A2
:1022700004ED00E010B54178D1B18168C1B100F141
:102280000C01D1E85F2F12B9BFF32F8F04E0531E6A
:10229000C1E8543F04B1F4E74FF6FF710A4207D09A
:1022A00000F014F900210022BDE8104000F0E0B970
:1022B00010BD0000012141700C4990F920C001F1CE
:1022C0001C021346194651F8082F4AB192F9201002
:1022D0006145F6DC02F10C01C0E90223986002E0DE
:1022E0000022C0E902230860704700BFF81B0020ED
:1022F00080B54A1C1AD0224A4FF0000E02F12C0C75
:10230000624606E0DA69914227D3891A03F1100286
:102310009E461368002BF5D1C1610021BEF1000F6C
:10232000C0E9041E18BF0EF1100C25E0144900226C
:1023300001F1300C634611461A6802F11003002ABD
:10234000F9D14FF0FF320029C2614FF00002C0E91D
:10235000042118BF01F1100C0EE0BEF1000FC0E91E
:10236000043EC16118BF0EF1100CCCF8000003F15F
:10237000140CDA69511AD961CCF8000080BD00BF95
:10238000F81B0020C36941695A1C11D0DFF848C00E
:1023900021B9DCF82C20824218BF7047026922B1B3
:1023A0005161D1691944D161416939B10A610EE0C5
:1023B000094A31B9136B834203D07047CCF82C2003
:1023C000704703690BB15961416919B10B61002173
:1023D0004161704713637047F81B0020B0B50C4D86
:1023E000EC6A1CB1E0690138E06100D0B0BD204664
:1023F00000F093F8204600F0C3F824692CB1E0699E
:102400000028F4D00020606100E00024EC62B0BD40
:10241000F81B0020B0B505461548002D4469017A27
:102420000DD0022906D12CB194F9200095F9201085
:10243000814213DC2846BDE8B04000F0A1B8022973
:1024400014D19CB1456A8DB194F9200095F9201002
:102450008142D8BFB0BD284600F05FF82046FFF7A4
:1024600029FF2846BDE8B04000F0DEB8B0BD00BF8F
:10247000F81B002010B5044600206070A07810F012
:10248000020F0DD0C00605D40F48216B406FFFF737
:1024900023FD05E00C48216BD0F88400FFF785FD93
:1024A000A078C00708BF10BD0749D1F8880020B147
:1024B0002146BDE81040FFF778BDD1F880002146E5
:1024C000BDE81040FFF708BDF81B002001468868F2
:1024D00030B18268002A8A6000D0D1600021C160DA
:1024E0007047C9B191F920C000F1080206E093F9E4
:1024F000202062450ADB03F1080218461368002B0E
:10250000F5D10022C1E90220083004E0C1E902301F
:10251000816003F10C0001607047C16831B18268CD
:102520008A60826802B1D1600021C1607047B0B595
:102530000446254603E02878012803D1ED68002DE4
:10254000F9D1B0BD2046FFF7E8FF28462146BDE897
:10255000B040FFF7C6BF10B504466078332818BFF7
:1025600010BD94F82320616A2046FFF7C9FA01469E
:1025700029B120460022BDE8104000F079B810BD16
:1025800001460120487002481C30FFF7AABF00BF77
:10259000F81B002090F822104022806B02EA810193
:1025A00081F06001084470470748416939B1086B00
:1025B0008A6B824204D90068044A904200D1704775
:1025C000012011F089BC00BFF81B0020A52E5AE2A3
:1025D000B0B5114DA86A08B101240AE00F480021E6
:1025E000826D0F4800F088FE0446002CAC6218BFD4
:1025F00001240A48416E61B1A96C51B9C26D094804
:10260000002100F079FE0028A86418BF01202040B6
:10261000B0BD2046B0BD00BFF81B0020F04C020842
:10262000DB3E01081527000802214170014988613D
:10263000FFF7BABFF81B002010B50C4C8446207A77
:1026400002281CBF002010BD636900206BB1626AC4
:102650005AB1184683F801C0FFF74AFE04F11C0086
:10266000FFF734FFFFF7E0FF012010BDF81B00204B
:10267000B0B504461546402294F8220002EA8000D4
:10268000A26B80F0600011502046FFF77BFE2046D1
:102690001DB1BDE8B040FFF7BDBEBDE8B040FFF7DB
:1026A0006FBF0000B0B5FFF7EBF9194DE968286D71
:1026B00001310028E96000D08047FFF78FFE00203D
:1026C000FFF7A8FE296C11B3AA69A86B90421CBF42
:1026D000C5E90E21B0BDE96B11B10139E96316D12D
:1026E000297A022913D16C6A8CB190F8200094F8F1
:1026F000201081420BD12046FFF70FFFA86BFFF798
:102700003FFF2046FFF790FF286CC5E90E40B0BDA3
:10271000F81B0020BCB50D480821D0E91820FFF7B0
:1027200001FB0B4D0028E8640ED00A496C46296570
:10273000214600224FF0FF33FFF7BCFA10B9DDE964
:1027400000108847E86CF3E7BCBD00BFF04C0208FE
:10275000F81B00205927000870B5144D6C6C1CB391
:1027600020690126013820611CE02069E0B9E06899
:1027700008B1A1688160686404F118010022002397
:10278000E86CFFF7E1FA18B10320214611F0A4FB31
:10279000E078012804D161692046FFF7E7F900E0FD
:1027A00066706C6C002CE0D170BD00BFF81B00207F
:1027B000EFF305822AB9EFF3108212B9EFF3118219
:1027C00002B36FF00302D8B1D1B90178052917D14E
:1027D000417899B10C30D0E85F1F11B9BFF32F8F4A
:1027E00004E04A1EC0E8532F03B1F4E74FF6FF7030
:1027F0000022014208BF6FF0020201E06FF0020206
:1028000010467047DFF804C000DF70474131000810
:10281000EFF305832BB9EFF3108313B9EFF31183B3
:102820000BB100207047DFF808C000DF704700BF21
:10283000A1310008EFF3058129B9EFF3108111B937
:10284000EFF3118119B3B0B5D8B10178052918D1CA
:102850004178C9B1C18900F10C02D2E85F3F9942C9
:1028600002D8BFF32F8F04E05C1CC2E8554F05B1BE
:10287000F3E7C28999B2914206D2FFF7C1FC00206A
:10288000B0BD6FF00300B0BD6FF00200B0BDDFF867
:1028900008C000DF704700BF25320008DFF804C021
:1028A00000DFFEE785320008EFF3058028B9EFF37B
:1028B000108010B9EFF3118008B100207047DFF8E5
:1028C00008C000DF704700BFED320008EFF305835A
:1028D0002BB9EFF3108313B9EFF311830BB1002081
:1028E0007047DFF808C000DF704700BFF93200080A
:1028F000EFF3058129B9EFF3108111B9EFF31181DD
:1029000011B16FF005007047DFF804C000DF7047B9
:10291000D9340008EFF3058CBCF1000F09D1EFF3B7
:10292000108CBCF1000F04D1EFF3118CBCF1000F3F
:1029300001D000207047DFF808C000DF704700BFFB
:1029400095350008EFF305822AB9EFF3108212B92A
:10295000EFF3118212B16FF005007047DFF804C089
:1029600000DF704711360008EFF3058129B9EFF356
:10297000108111B9EFF3118111B16FF005007047AB
:10298000DFF804C000DF704759360008014629B15E
:1029900080B51320FFF750FEBDE88040002070474F
:1029A0000148007A704700BFF81B00200148C0684A
:1029B000704700BFF81B00202DE9F843DFF8648161
:1029C00098F80800012800F0A580002840F0A480B5
:1029D000554F4FF0FF30796D4829C0F09F80FC685B
:1029E000002C00F09B803D8A002D00F0978008F1BC
:1029F00008009C21FEF7A1F8A8F85450C8F85C40E4
:102A0000B868D7E90B41C8F840002046FFF78DFAB7
:102A100008B1C8F88040D7E90541DFF81091D7E93F
:102A200007562046C847D8F880100028284618BF07
:102A30002146C8F874103146C847D8F880100028DD
:102A400018BF2946C8F87810D7E909412046C84779
:102A5000D8F88010002818BF21467C6BC8F87C107D
:102A600044B12168D4E902232046FFF7C9FA08B12E
:102A7000C8F88440BC6B44B12168D4E902232046E5
:102A8000FFF7BEFA08B1C8F88840FC6B44B1216872
:102A9000D4E902232046FFF7B3FA08B1C8F88C4006
:102AA0003C6C44B12168D4E902232046FFF7A8FA20
:102AB00008B1C8F890407C6C44B12168D4E9022385
:102AC0002046FFF79DFA08B1C8F89440BC6C44B1A9
:102AD0002168D4E902232046FFF792FA08B1C8F82A
:102AE0009840FC6C44B12168D4E902232046FFF7EA
:102AF00087FA08B1C8F89C403C6D44B12168D4E91C
:102B000002232046FFF77CFA08B1C8F8A040012054
:102B100088F80800002001E04FF0FF3001B0BDE868
:102B2000F08300BFF81B0020F04C02082B1F0008A8
:102B3000B0B51E4C207A01281CD1FFF749FDC8B161
:102B40001B48FF211B4D8175817D026881F0FF01CB
:102B5000C2F30222B1FA81F1C1F120018A4228BFF9
:102B6000511CFE2202FA01F1C17468681249FEF795
:102B7000A7FF10B14FF0FF30B0BDFEF79DFF206101
:102B8000FEF784FF04F11C00FFF7A0FC0028F1D041
:102B9000FFF74AFD2878C0070CBF0320022080F30E
:102BA0001488022020720020B0BD00BFF81B002056
:102BB0000CED00E0F04C0208B10400082DE9F843E8
:102BC00004461E4690460F466FF00305002C67D062
:102BD000002F65D02078082862D1607800285BD06B
:102BE0002046FEF7E5FE8146B9F1000F42D02046AF
:102BF0004946FEF732FF626A09F10C013846FDF7DB
:102C0000AAFEB8F1000F04F10C064FF0000549468A
:102C10001CBF99F8030088F8000089F8015030467D
:102C2000FFF7C3F9A068D8B34078932837D130466E
:102C3000FFF796F90646002596B32046FFF746FCB7
:102C4000002101220746FFF713FD3846FFF7A2FCDB
:102C50000746626A06F10C00B968FDF77CFE40F297
:102C6000071031463080B570F868F0702046FEF7E6
:102C7000C2FE15E086B183203146FFF7DDFC40B18E
:102C8000094841692046FFF72CFCEFF30980C0E9B1
:102C900002786FF0010503E06FF0020500E0002507
:102CA000284601B0BDE8F083F81B00202DE9F84F5D
:102CB00004460D46002764B15DB105F10F01B4FA79
:102CC00084F021F00306B6FA86F10844202804D2E5
:102CD0000027384601B0BDE8F08F06FB04F872B15A
:102CE000D2F808A01368D2E90490BAF1000F11D00D
:102CF0005FEA8A71ECD1D1683429E9D30DE0002371
:102D00004FF0000935490093D1F8A00078B1FFF7E2
:102D100027F912E0D1680029DAD1B9F1000F31D0DA
:102D200000274045D5D319F003002DD0D1E7D1F8C5
:102D3000800034210122FFF78FF882464FF0010B0B
:102D4000B9F1000F12D1BAF1000F0FD0234F414655
:102D50000022F86FFFF780F88146B9F1000F07D025
:102D600048464146FDF7C7FE57461AE057461AE067
:102D7000BBF1000F14D0D7F8A00060B15146FFF7A7
:102D800014F90DE00028A3D1BAF1000FBAD00093D6
:102D90004FF0000BD4E7D7F880005146FFF79CF8BE
:102DA00000274BF0020B002F3FF493AF4FF48470D9
:102DB000009987F802B032464B4638800020C7E9B8
:102DC0000110C7E90950C7E90B0007F10C002146C3
:102DD000FFF716F90148024901677AE7F81B00205E
:102DE000552000082DE9F8430546994690460E46C1
:102DF0006FF00307002D52D0002E50D028780828FD
:102E00004DD16878002848D0A868D0B14078832890
:102E100017D12846FFF75AFB00210122044600275C
:102E2000FFF726FC2046FFF7B5FB04466A6A3146E9
:102E3000A068FDF790FDE06888B380F80080002767
:102E40002DE005F10C00FFF78BF804468CB16A6A9F
:102E500004F10C003146FDF77EFD40F2071000271B
:102E6000214620802846A77084F80380FEF7C3FD22
:102E700015E0B9F1000F10D093204946FFF7DCFBB5
:102E800040B1094841692846FFF72BFBEFF3098061
:102E9000C0E902686FF0010701E06FF002073846F1
:102EA00001B0BDE8F08300BFF81B002070B50446F8
:102EB00023480E4645695DB33CB32078042824D1ED
:102EC0006078C8B3207E30B3E17811F0010F02D0F2
:102ED000E268AA422CD07EB388070AD5E06895F94B
:102EE000201090F920208A4203DA80F82010FFF7A2
:102EF0001EFB53203146FFF79FFB18B120462946A1
:102F0000FFF7EFFA6FF0010070BD6FF0030070BDC6
:102F10004FF0FF3070BDE5600021E86A0028C4E989
:102F2000041000D00461EC6201202076002070BD06
:102F3000FF2801D00130F8E76FF0020070BD00BF3C
:102F4000F81B002010B50446002C55D0207804282A
:102F500052D16078002852D000206070207E002876
:102F60003FD0D4F814C0E068BCF1000F00F12C038E
:102F70001CBF2269CCF8102021691A46002918BF0D
:102F800001F11402C2F800C0E178890723D590F856
:102F900021C00AE0936833B193F920304FFA8CF1E5
:102FA0008B42C8BF9C4602F114031A68002AF1D173
:102FB00090F820105FFA8CF291420CD080F820C07B
:102FC000FFF7B5FA07E02046FFF780FA6FF002013D
:102FD0000022FFF74DFBA0680028F4D10020FFF786
:102FE00019FAA078C00712D00A49D1F8940048B164
:102FF0002146FEF7DAFF0AE06FF0030010BD6FF024
:10300000020010BDD1F880002146FEF765FF0020C8
:1030100010BD00BFF81B002070B558B1D0E90065A5
:10302000846884B1A10711D1C16800201C2938BF70
:1030300070BD16E0002500261149D1F8940038B182
:10304000FEF78EFF0AE0C0680028F5D0002070BDB2
:10305000D1F880001C210122FEF7FEFE044664B177
:103060000120A0704FF482701121208004F108002B
:10307000E5706660FDF761FD00E00024204670BD4C
:10308000F81B002070B504462C48406970B154B15B
:103090002178042907D1617811B1E168814209D012
:1030A0006FF0020404E06FF0030401E04FF0FF341E
:1030B000204670BD217E0029F2D0013911F0FF0FAA
:1030C000217601D00024F3E7616909B122690A6120
:1030D000236900F12C052A46002B18BF03F11402C6
:1030E0001160E178890711D590F8211009E0936803
:1030F0002BB193F920304DB2AB42C8BF194602F153
:1031000014052A68002AF2D180F82010A06878B14E
:103110002046FFF7DBF90021002205460026FFF7D5
:10312000A7FAE560E86AC4E904600120EC62207651
:1031300000200024FFF76EF9BAE700BFF81B00205B
:10314000B0B5044624B32078052821D1607810B3A7
:1031500004F10C00D0E85F2F12B9BFF32F8F04E009
:10316000531EC0E8553F05B1F4E74FF6FF70024229
:103170001CBF0020B0BD71B16320FFF75DFA20B124
:10318000064841692046FFF7ACF96FF00100B0BD79
:103190006FF00300B0BD6FF00200B0BDF81B00205F
:1031A00070B504464FF6FE730D460021601E98422E
:1031B00098BFA54201D9084670BD4AB1906816680B
:1031C00070B181070FD1D2680021102AF3D314E027
:1031D00000261249D1F8980038B1FEF7C1FE0AE086
:1031E000D0680028F5D00021E5E7D1F88000102153
:1031F0000122FEF731FE68B10121817040F2051114
:10320000074A01800021C0E9016104498581C48128
:103210008A6600E000200146CDE700BFF81B0020D1
:1032200075220008B0B570B1017805290BD141783D
:1032300069B1816871B1FFF749F9002101220024C9
:10324000FFF716FA01E06FF003042046B0BD6FF0FF
:103250000204FAE7C18900F10C02D2E85F3F99420B
:1032600002D8BFF32F8F04E05C1CC2E8554F05B1B4
:10327000F3E7C2896FF0020099B2914238BF002093
:10328000B0BD0000B0B5184D6C6964B3287A02284F
:1032900029D1686A38B3E06AFEF747FFA06918B120
:1032A00000210022FFF7E4F9EFF30980A06305F1A4
:1032B0001C00FFF70BF9FFF7B7F900206861E07811
:1032C000C00701D0A06920B12046BDE8B040FFF79B
:1032D000D1B80020E06004206070686B0028A06016
:1032E00000D0C4606C63B0BDF81B00200148406989
:1032F000704700BFF81B00202DE9FE4F8046B8F153
:10330000000F21D06AB102F1100A9AE88006D2E9D2
:1033100000439568B5B1A80716D1D068442813D3E7
:1033200017E04FF0180A002300274FF0000900248F
:10333000644A0293D2F88800CDE90014C8B1FEF7C0
:103340000FFE1CE0D06820B10026304603B0BDE877
:10335000F08F37B10026B9F1000FF6D017F0070053
:10336000F3D1BAF1000F38D0AAF101003728EBD819
:1033700035E0D2F8800044210122FEF76DFD0546BC
:103380004FF0010B67B95DB1B9F1000F0AD04D489C
:1033900049460022406FFEF75FFD074687B911E0FE
:1033A0002E463EE047484849D0F88400D1F8549072
:1033B0000028ECD0FEF7D4FD07461FB14BF0100BF0
:1033C0002E462CE0BBF1000F1CD03E49D1F88800FE
:1033D000E0B12946FEF7E9FD1DE04FF0180AB9F10A
:1033E000000F06D00026B9F1480FAED319F0070040
:1033F000ABD1002D3FF49CAFCDE9001402934FF008
:10340000000BBFE74FF0000B002707E0D1F880006A
:103410002946FEF761FD00274FF0010B00264BF017
:10342000020B002E3FF491AF40F2011086F802B07B
:10343000182130800298F0700198706006F1080041
:10344000FDF77BFB07EB0901FD2086F821A086F83C
:1034500020A086F822000020403986F82F00C6F808
:103460002B00C6F82700C6F82300C6E90C79C6E988
:103470000E181649009D39601349097849070AD585
:1034800011213A1D4FF0CC33A1EB990101E008C2A4
:1034900001310029FBD1B16B002202E041F822008A
:1034A00001320D2AFAD10A4A4FF080700D62C1E94B
:1034B0000D28C8630348074901663046FEF7AAFF96
:1034C00043E700BFF81B0020F04C0208A52E5AE28B
:1034D0009D28000857250008B0B50446C4B12078DF
:1034E000012815D1607800F00F00012813D00328BF
:1034F00015D002281CBF6FF00200B0BD24496FF048
:1035000002000A7A022A18BFB0BD496A69B9B0BD83
:103510006FF00300B0BD2046FEF7FFFF05E0204638
:10352000FEF7FBFF2046FEF72DFFE06AFEF7FDFDEC
:10353000A06918B100210022FFF79AF860780228EC
:103540000CD1134DEFF30980A06305F11C00FEF7C9
:10355000BDFFFFF769F80020686102E00020FEF778
:1035600059FFE078C00701D0A06920B12046FEF7DE
:1035700081FF0020B0BD0020E0600420607004489E
:10358000416B0029A16000D0CC604463F1E700BF2B
:10359000F81B0020F8B505460E46144600218DB3F1
:1035A000012E2FD84BB198681F6870B181070FD1D9
:1035B000DA680021202A15D224E000271349D1F827
:1035C0008C0038B1FEF7CCFC0AE0D8680028F5D0B2
:1035D000002117E0D1F8800020210122FEF73CFCF9
:1035E00070B1012181704FF4817101800021C6709A
:1035F000C0E90171C0E90311C0E90515C46100E02B
:1036000000200146084601B0F0BD00BFF81B0020B5
:10361000B0B505460C466FF00300BDB1B4B12978D2
:10362000022918BFB0BD687888B1022803D12846A6
:10363000FEF7C4FA05E00748006D40B102206C6156
:10364000687028462146FEF791FA0020B0BD6FF061
:103650000200B0BDF81B002078B1017802290CD11E
:10366000417802291CBF6FF00200704780B501212C
:103670004170FEF7A3FA002080BD6FF00300704791
:103680005FEA400C08BF91F0000F4FEA8C234FEA2D
:10369000C12243EA51514FEA1C5018BF00F5F040D7
:1036A0004FEA300018BF41F000415FEA6C5C00F067
:1036B0002980BCF1FF3F08BF40F080407047130CE9
:1036C00006BF12044FF0100C4FF0000C130E04BF95
:1036D00012020CF1080C130F04BF12010CF1040CC0
:1036E000930F04BF92000CF1020CD30F04BF5200E1
:1036F0000CF1010C11464FF00002A0F11F00A0EBED
:103700000C00704711F0004F08BF704731F00041C6
:103710003FF4D5AF0B0C06BF09044FF0100C4FF06F
:10372000000C0B0E04BF09020CF1080C0B0F04BFB8
:1037300009010CF1040C8B0F04BF89000CF1020C81
:10374000CB0F04BF49000CF1010CCCF12003A0EB1E
:103750000C0022FA03F302FA0CF241EA030100F131
:103760000100704720F07F4C80EA030023F07F4780
:10377000ACEB070303F57C5300F0004003F1FF03BB
:103780002DE980494FEA154B09B44FEA144325EA65
:103790000B4E24EA03480FF2042606EB13274908D0
:1037A0003E785FEA320203FB0667C7F5000707FBB6
:1037B00006F64FEA54374FEAD64606F1020607FBF3
:1037C000066CCCF1005C4FEA1C472CEA074C07FB67
:1037D00006F40CFB06F504EB15464FEA961634BFCB
:1037E00000204FF000404FEAD13706FB07FC4FEABC
:1037F0001C4C0CFB0BF7D21B03FB0CF761EB070116
:103800000CFB0EF7B0EB074072EB17420CFB08F70E
:1038100034BFA2EB0742B2EB074261EB17414FEA1C
:103820000C444FEA910706FB07FC4FEA1C4C0CFBCB
:103830000BF7B0EBC74072EB573203FB0CF734BF0A
:10384000A2EBC742B2EBC74261EB57310CFB0EF75C
:10385000B0EBC70072EB57720CFB08F734BFA2EB5A
:10386000C702B2EBC70261EB5771039F4FEA816158
:1038700041EA921104EBCC044FEAD1374FEA82625D
:1038800006FB07FC42EA90124FEA80604FEA1C4CAC
:103890000CFB0BF7D21B03FB0CF761EB07010CFBD6
:1038A0000EF7B0EB074072EB17420CFB08F734BF82
:1038B000A2EB0742B2EB074261EB17414FEA8C558E
:1038C0004FEA910704EB9C2406FB07FC4FEA1C4CD3
:1038D0000CFB0BF7B0EBC74072EB573203FB0CF756
:1038E00034BFA2EBC742B2EBC74261EB57310CFBCE
:1038F0000EF7B0EBC70072EB57720CFB08F734BF42
:10390000A2EBC702B2EBC70261EB577115EB4C2576
:103910004FEA816141EA92114FEA82624FEAD13760
:1039200042EA901206FB07FC44F100044FEA806073
:103930004FEA1C4C0CFB0BF7D21B03FB0CF761EBA3
:1039400007010CFB0EF7B0EB074072EB17420CFBC4
:1039500008F734BFA2EB0742B2EB074261EB174115
:1039600015EB1C154FEA813141EA92414FEA823250
:1039700042EA90424FEA80304FEA0C7644F100046C
:1039800048EA03434EEA0B484FF0000EB2EB080C36
:1039900071EB030724BF624639464EEB0E0E4FF023
:1039A000000B0018524149414BEB0B0BB2EB080CDA
:1039B00071EB03077BF1000B24BF624639464EEBE7
:1039C0000E0E4FF0000B0018524149414BEB0B0B10
:1039D000B2EB080C71EB03077BF1000B24BF6246CE
:1039E00039464EEB0E0E51EA020718BF46F00106AB
:1039F00016EB0E7655F1000254F1000103D5BDE837
:103A00008901BDE80088BDE88901BDE80048B61914
:103A1000524141EB0101A3F10103704780807F7E99
:103A20007D7C7B7A79787776767574737271717034
:103A30006F6E6E6D6C6C6B6A6A69686867666665E6
:103A40006464636362616160605F5F5E5E5D5D5C74
:103A50005C5B5B5A5A5959585857575656555555E5
:103A60005454535352525251515050504F4F4F4E45
:103A70004E4D4D4D4C4C4C4B4B4B4A4A4A49494993
:103A800048484847474747464646454545444444D5
:103A9000444343434342424242414141002B26D4E6
:103AA000770021D01CB54FEA370703B44FF0100060
:103AB0004FF0100111F0F2FB0FBCBDE810400BF10C
:103AC000010BBBF1010F08BF5FEA170722BF12F11C
:103AD000010211F101014FF0004143F1000300F038
:103AE000004043EA00007047F9D35708DAE746EA96
:103AF000064613F1400F4FEA16461FDD13F1200F63
:103B0000DFBF16430A46002120335B42C8D0C3F111
:103B1000200746EA064602FA07F74FEA164646EA43
:103B20000706C3F1200722FA03F201FA07F721FA88
:103B300003F14FF0000342EA0702B1E746EA02064A
:103B400046EA06464FEA164646EA0106BCBF46EA82
:103B50000646360C4FF000034FF000024FF0000114
:103B60009EE72DE9C048934630B491E8380007C875
:103B700031EA400C48BF34EA430C03D5FFF7F2FDAD
:103B8000FFF78CFFF0BCBDE800882DE9C0489346E4
:103B900030B491E8380007C810F0804F08BF13F028
:103BA000804F03D100F005F8FFF778FFF0BCBDE8C7
:103BB000008820F07F4780EA030023F07F4C07EB6A
:103BC0000C03A3F57C5300F00040A3F1FE0392F038
:103BD000000F00F0B38095F0000F00F077802DE922
:103BE00001494FEA11404FEA144621EA004800FB20
:103BF00006FC24EA064708FB06F607FB08F800FB6C
:103C000007F718EB06484CEB164C4FEA124B18EB33
:103C100007484FEA15464CEB174022EA0B4E0BFBC8
:103C200006FC25EA06470EFB06F607FB0EFE0BFB1D
:103C300007F71EEB064E4CEB164C4FF000061EEB42
:103C4000074E4CEB174B18EB0B0840F1000018EB3C
:103C50000E0B58EB000840F100008F1A4FF00001E6
:103C60003CBFC943661B14BFB5EB040C00213CBF2D
:103C7000C943F61B4FEA17444EEA8E0E27EA044565
:103C80004FEA1C4704FB07622CEA074C05FB07F7C9
:103C90000CFB05F604FB0CFC16EB074642EB174247
:103CA00016EB0C4642EB1C421BEB060658EB0202DD
:103CB000414146EA9E0601D5BDE80189B619524147
:103CC00041EB0101A3F10103BDE801894FEA14456D
:103CD0004FEA114724EA054621EA074C05FB07F4A1
:103CE00006FB07F70CFB06F105FB0CFC11EB07418B
:103CF00044EB17444FEA124711EB0C4144EB1C44D0
:103D000022EA074C05FB07F206FB07F70CFB06F659
:103D100005FB0CFC16EB074642EB174216EB0C4674
:103D200042EB1C456A1854F1000148BF7047B619B0
:103D3000524141EB0101A3F10103704795F0000FDF
:103D400037D04FEA11424FEA144721EA024624EAEB
:103D5000074C02FB07F106FB07F70CFB06F402FB1E
:103D60000CFC14EB074441EB17414FEA154714EBE9
:103D70000C4441EB1C4125EA074C02FB07F506FB0E
:103D800007F70CFB06F602FB0CFC16EB074645EBAF
:103D9000174516EB0C4645EB1C42121951F1000178
:103DA00048BF7047B619524141EB0101A3F101032D
:103DB00070474FEA14454FEA114724EA054621EAC5
:103DC000074C05FB07F106FB07F70CFB06F24FF06B
:103DD000000605FB0CFC12EB074241EB174112EB0E
:103DE0000C4251EB1C4148BF7047921841EB010156
:103DF000A3F1010370470000002808BF70472DE9B8
:103E0000F04F91B00F46044602F0B0FB204601F09F
:103E10009DFB039090F854A0D0F83490866DC56C4B
:103E200003A801F073FC26B139462046B04700F0E4
:103E3000ABB900264FF00108122F7DD006DC082F09
:103E40007BD0102F7AD0112F3CD006E0132F5BD0FF
:103E50001D2F00F0E4801E2F71D0202FC0F294811E
:103E6000BAF1000F00F0F280204601F06FFB0590E0
:103E7000D0F834A0D0F84C9005A801F047FCBAF176
:103E8000000F00F0E380504601F060FB8246494697
:103E9000069004F029F881465046FCF73DFD484560
:103EA0007DD9D144484603F0D9FF09EB00014846CB
:103EB000FCF70EFD06A801F029FC0521204607F0BD
:103EC00076FEC3E0B9F1000F00F05E81484601F0D4
:103ED0003DFB07462946049004F006F8074438469F
:103EE00003F0ACFF0546029603F0C8FF8046681C4D
:103EF00086B2304603F0C2FF0546A84526D004A886
:103F000001F004FC00F040B9B9F1000F00F03C8171
:103F1000484601F01BFB07462946049003F0E4FFE6
:103F20000744384603F08AFF0546029603F0A6FFD1
:103F30008046681E86B203E016E021E01AE043E006
:103F4000304603F09BFF0546A845D8D1314602A86C
:103F500003F062FF2A4602A93846FCF7FCFC052163
:103F6000204607F024FECAE7691C204600F0B6FB95
:103F700000F00AB9691E204600F0B0FB00F004B959
:103F8000002D00F00181691E204600F0A7FB2046AD
:103F900001F0DCFA0190C76C456B01A800E052E02B
:103FA00001F0B4FB002D00F0EF80284601F0CEFABE
:103FB00006463946029003F097FF05463046FCF767
:103FC000ABFCA84229D918E0204601F0BFFA0190C5
:103FD000C76C456B01A801F099FB002D7ED02846E7
:103FE00001F0B4FA06463946029003F07DFF05461B
:103FF0003046FCF791FCA8420FD93544284603F01F
:104000002DFF29182846FCF763FC02A801F07EFB6F
:104010000521204607F0CBFDB6E002A810E02046BF
:1040200001F094FA0390BAF1010F08BF80F85460D0
:1040300005D080F854802946204600F04FFB03A8A5
:1040400001F064FBA0E006A801F060FB1FFA87FB0B
:10405000204601F07BFA07460290B0F938000028AC
:1040600012DD786B4FF0000940B101F06FFA00905B
:1040700004F056FE8146684601F048FBB7F9381057
:1040800009F10100884200DC46460298C06C0790A6
:1040900002A801F03BFB002E76D0584603F0EEFE5E
:1040A000074626464FF00008204601F04FFA0B90D5
:1040B000406B40B101F04AFA0890FCF72DFC8046B5
:1040C00008A801F023FB0B9907EB0800498F401A61
:1040D00000F101080BA801F019FB00E054E0B8F171
:1040E000000F2CDD304608F1100801F02FFA009087
:1040F000D0F834A0408F8044684601F007FB414669
:10410000504601F037FA5FEA00093DD0BAF1000FDE
:104110000AD101F01BFA204B0D9042461B6800218A
:1041200098470DA801F0F2FA304601F00FFA00901E
:10413000A0F83A80C0F83490684601F0E7FA2046CB
:1041400001F004FA0290466B02A801F0DFFA304653
:1041500001F0FCF906460F90079903F0C5FE0644EE
:104160003046FCF7D9FB421CF0193146FCF738FC0D
:104170005946304603F050FE0FA801F0C7FA05215A
:10418000204607F014FDEFE6204607F09BFC03F005
:10419000D7FF11B0BDE8F08F1C1B002070B545683B
:1041A000044682B0284608F094FC0646214628467C
:1041B00006F0BEFB002804BF02B070BD20680F28C7
:1041C00044D004DC0B2847D00E2850D066E0A0F580
:1041D0008070133804D0A0F580702D381FD05DE0BA
:1041E000284607F0BDFD284601F0B0F9009090F890
:1041F000561081F0040180F85610684601F086FAE6
:10420000002128460BF03EFF284601F09FF9009060
:10421000D0F88400002107F088FD684624E0E068BB
:1042200078B1017A41B10168284600F0E6F8012131
:10423000284607F0BCFC31E00221284607F0B7FC15
:104240002CE00321284607F0B2FC27E00121284694
:104250000BF018FF02B070BD284601F077F901900D
:10426000343001F0DBF801A801F050FA16E0AEB1ED
:10427000E0684168002911DD01681B290ED009DCC6
:1042800009291CBF0A290D2908D02846FFF7B4FDCB
:1042900002B070BD212918BF2229F6D1204606F0B0
:1042A000B3FF02B070BD2DE9F04186B00DF13008CA
:1042B00098E8F0104FF00008CDF814808DE8F01069
:1042C00000F004F806B0BDE8F08100002DE9FF4FD2
:1042D00085B09846DDE91654DDE9126B91468A46B1
:1042E000159F02F043F904F16001324A03914BF447
:1042F00080500096CDE9010243464A465146059852
:1043000006F0C6FE04004FD001F020F91022394615
:10431000049006F0DBFC2848049990E8CC1701F1E2
:10432000600B8BE8CC17006AC1F88000012081F88F
:104330005500681C18BF012081F88800002DD8BFE7
:1043400008252AB20A87002048874863551C04A81C
:1043500001F0DCF9204601F0F9F80090476B408F3E
:104360000544684601F0D2F92946384601F002F9C1
:10437000060015D057B901F0E9F8104B01902A4614
:104380001B680021984701A801F0C0F9204601F000
:10439000DDF8009045874663684601F0B7F903E011
:1043A000204606F06BFF002403F0CAFE09B0204649
:1043B000BDE8F08F9D410008141A00201C1B00204E
:1043C000002808BF7047F8B516460C46054602F0AF
:1043D000CDF8284601F0BAF80090002818BF032C49
:1043E00005D200EB84008667284607F06BFB684621
:1043F00001F08CF903F0A4FEF8BD002808BF704757
:104400002DE9F04186B00C46074602F0AFF8384679
:1044100001F09CF80090406B002849D001F096F81C
:1044200003900098806E03F001FB8046384607F049
:1044300046FA0646039801F0C3FF0546009890F837
:10444000601001F00301012918D002290FD0416E3C
:10445000C06A00680844201A441E039804F060FCF7
:10446000002C11DA0021384600F038F917E0701BF3
:10447000401C00EBD070A4EB6004EEE7406E711BB3
:10448000081A201A441CE8E7A54204DB024621462C
:10449000039804F0D9FB0146384600F01FF903A841
:1044A00001F034F9404603F0C1FA384607F00AFB40
:1044B000684601F02BF903F043FE06B0BDE8F08139
:1044C000002808BF704738B50C46054602F04EF884
:1044D000284601F03BF800908466284607F0F2FA7F
:1044E000684601F013F903F02BFE38BD2DE9F04FBB
:1044F00087B08A4606004FF0000904BF07B0BDE848
:10450000F08F02F033F8304601F020F80090B0F957
:104510003850446B684601F0F9F84FF00008BAF1E2
:10452000000F7BD054B1204601F010F80190FCF749
:10453000F3F900F1010901A801F0E8F8504604F090
:10454000EFFB0446A8426ADC2146504603F0CCFC4F
:10455000471CA7EB090B35464FF00009304600F029
:10456000F5FF0390406B40B100F0F0FF0590FCF7C1
:10457000D3F9814605A801F0C9F803990BEB0900AE
:10458000498F401A00F1010903A801F0BFF8B9F101
:10459000000F2CDD049509F11005049800F0D6FFFA
:1045A0000290D0F834B0408F054402A801F0AEF874
:1045B0002946584600F0DEFF5FEA00094CD0BBF107
:1045C000000F0AD100F0C2FF284B06902A461B6854
:1045D0000021984706A801F099F8049800F0B6FF6A
:1045E00002904587C0F8349002A801F08FF8304659
:1045F00000F0ACFF0090406B00F0A8FF1C4B019056
:104600003A461B68514698470198384400F8018C97
:104610000098C464B0F938108C4201E00DE023E04A
:1046200001BF90F854100129611EC16401A801F076
:104630006DF8684601F06AF80EE0304600F086FF3B
:104640000090343000F0EAFE0098A0F83A80C0F8FC
:104650004C80684601F05AF8304607F033FA03F010
:104660006FFD07B0BDE8F08F2C466DE71C1B0020E6
:10467000201B0020002808BF704738B50D460446AF
:1046800001F074FF204600F061FF009018B105664C
:10469000204607F017FA684601F038F803F050FD9D
:1046A00038BD002808BF7047F8B516460C460546C9
:1046B00001F05CFF284600F049FF0090002818BF79
:1046C000032C05D200EB8400C666284607F0FAF9F1
:1046D000684601F01BF803F033FDF8BD10B582B059
:1046E0000C4600F033FF0090406BE8B100F02EFF65
:1046F000019004F015FB009991F85420002A18BF8E
:104700000122002C15DB844215DC00BFB1F9380012
:10471000801AA04211DBC86CA04218BFCC640020F4
:10472000086501A800F0F2FF684600F0EFFF02B054
:1047300010BD0024E7E70446E8E7B1F93800841A21
:10474000E9E72DE9F04F85B08A468346DDE90E01A1
:1047500000F5B4749846914601F5B475B4F5B47F8C
:104760000FDB61424FF4B47091FBF0F0404200283F
:1047700007DDA0EB001000EB400004EBC00405EBEC
:10478000C0054FF0FF360127002DDCBF05B0BDE8A6
:10479000F08F5A2C0FDA002C63DB5A2DB4BF284659
:1047A0005A204346CDE90040CDE902764A465146BB
:1047B000584608F033FE5A3C5A3D002DDCBF05B088
:1047C000BDE8F08F5A2C13DA002C4CDB5A2DB4BF05
:1047D00028465A20C4F15A01C0F15A000090CDE990
:1047E000011643464A4651465846039608F016FEBF
:1047F0005A3C5A3D002DDCBF05B0BDE8F08F5A2C65
:104800000FDA002C31DB5A2DB4BF28465A2043461C
:10481000CDE900404A4651465846CDE9026708F0C6
:10482000FDFD5A3C5A3D002DDCBF05B0BDE8F08FC0
:104830005A2C13DA002C1ADB5A2DB4BF28465A2002
:10484000C4F15A01C0F15A000090CDE90117434666
:104850004A4651465846039708F0E0FD5A3C5A3DF7
:1048600092E7002499E70024B0E70024CBE7002476
:10487000E2E700002DE9FF4F83B0074643F6FF74DF
:10488000C4F1000090460E1E0090C4BFBA1C08463A
:104890000EDD00BFB2F90010A142D8BF0C46009B4C
:1048A0009942D8BF19460091401E02F10402F1D18D
:1048B0008C490868406970B1B0F90630069A9B1AB5
:1048C000009A9342C0F20281B0F90230069A9A1A15
:1048D000A24200F3018100988442D2BFA6F10109EF
:1048E00007B0BDE8F08F00207F490546002E086024
:1048F000C4BF069804EB000A7EDD4D45B4BF6A1CB8
:10490000002207EB850C07EB8201BCF90200B1F92C
:104910000230A04255D1A34213D137F925005146A8
:1049200000EB080337F922006E4A404483421268C4
:10493000526ED2F800C0BABF024618461A46E04787
:1049400087E000222946B9F1000F0CDD002914BFD1
:10495000491E711E07EB8100B0F90200A04203D18D
:10496000521C4A45F2DB2046A04272D0001B37F9A8
:1049700025101A1B90EA020F09D45A4A01EB0800CD
:1049800051461268526E13680246984761E0DFF89C
:1049900058B1DBF800C0BCF10C0F5ADA0020BCF1B2
:1049A000000FC4BF6046514A4CDD00BF02EB40031C
:1049B00033F9023C8B4245DB22F81030401EF5D122
:1049C00040E0A34245D0A8BF844203DAA042A8BF7A
:1049D0009C423EDB98424EDC0246A042DFBF1846B6
:1049E0008442BCF90030B1F9001032DCA1EB030CB9
:1049F000A11A0CFB01F100E02FE00029A0EB020C52
:104A0000CEBF01EB6C01A1EB6C01491C801A91FB3C
:104A1000F0F0DFF8D4B0C118DBF800C0BCF10C0F27
:104A200017DA0020BCF1000FC4BF60462F4A09DD31
:104A300002EB400333F9023C8B4203DB22F81030D7
:104A4000401EF5D1294A22F810100CF10100CBF8D4
:104A500000006D1CB542FFF650AF069800252044BB
:104A600001902148AB4601680029C4BF1F49B1F934
:104A700000A022DD18E01A46A342DEBF8442B1F94D
:104A80000030BCF90010B1DDE3E7184931F91BA093
:104A900055B108EB000C134808EB0A0201990068B5
:104AA000406E0368604698470F490BF1010B85F093
:104AB0000105096850465945E7DC0098641C8442AA
:104AC0007FF711AF07B0BDE8F08F00BFB0F9063037
:104AD000069A9A1A0092F7E6B0F902200698141A7C
:104AE000F9E60000A4190020001A0020A4220020EA
:104AF00070B52048046801F039FD204605F0BCF986
:104B000003F01EFB1C48046801F030FD204605F050
:104B1000EDF903F015FB012501F028FD174C206885
:104B2000057603F00DFB01F021FD20680025858549
:104B300003F006FB01F01AFD2068458503F000FB39
:104B400001F014FD284605F0E9F903F0F9FA0C48E4
:104B5000056801F00BFD2068002D18BFC56103F04A
:104B6000EFFA002501F002FD20688576BDE870406F
:104B700003F0E6BAA01900209C190020A419002017
:104B8000981900202DE9F04F4B4989B00968B1F917
:104B900022200692D1F81CC0B1F92470DCF81C4028
:104BA000A28982429CBFE389984205D8A0EB020902
:104BB0004FF0FF38266812E0D4E90162002A71D074
:104BC000138883429CBF5588A8426BD8C01A52688C
:104BD00080B202EB8000B0F90090B0F90280B9F128
:104BE000FF3F5FD09CF81800A27C10FB02FB94F8FA
:104BF00010A00790B1F92A50284605F08FF9C0B2ED
:104C000008902D4809FB0B620068A37C4FF0010956
:104C1000816BCDE90293CDE90421C0695246C17E82
:104C2000807ECDE90001DDE90603394604F0C0FBD2
:104C3000B8F1FF3F18D045F0020005F06FF91E48AB
:104C4000A37C08FB0B620068816BCDE90293CDE980
:104C50000421C0695246C17E807ECDE90001DDE9B4
:104C60000603394604F0A4FB134E3068C069417E48
:104C7000007E814213D9022D11D085F0040005F089
:104C80004DF93068C069017EC27E11FB0271427E1F
:104C9000D319827E06981AFB020204F065FD08987B
:104CA00005F03CF90448627C0068418C1144418461
:104CB00009B0BDE8F08F0000A419002004480029C5
:104CC0000068C069C0691CBF027C0A60407C7047F4
:104CD000A4190020022008807047C06982898A4296
:104CE0009CBFC289914210D9806880B102888A42F3
:104CF0009CBF438899420AD8406800EB8100A0EB32
:104D00008200B0F90000002801DB0120704700207C
:104D1000704700002DE9F043394D024687B02868FE
:104D2000B0F92A60C069C1691046002904BF07B004
:104D3000BDE8F0830B8883429CBF4B88984205D91D
:104D400089680029F6D107B0BDE8F083002904BFC7
:104D500007B0BDE8F08348680988511A00EBC10428
:104D60003046A77805F0DAF88046286862680123A3
:104D7000816BCDE90237CDE90421C169CB7E8A7E02
:104D8000CDE900230B7EB0F924102278B0F922007F
:104D900004F00EFB2868C069417E027E91421FD953
:104DA000C07E11FB00F912FB00F7022E18D001F0B3
:104DB000CBFA064601F096FA02F01BFE296822782B
:104DC000CB69B1F92200DB7E12FB0302B1F924109A
:104DD00001EB0903394404F0C7FC304602F009FE38
:104DE000404605F09BF828686278C369B0F9221044
:104DF0009B7E12FB0311418407B0BDE8F0830000E5
:104E0000A419002010B4044615480068D0F81CC04E
:104E10002046DCF81C2002B3138883429CBF5388D1
:104E2000984203D99268002AF6D116E0AAB11088F8
:104E30005368221A012000EBC2009CF81AC0185CCB
:104E400010FB0CF0002904BF10BC704713F832208F
:104E500012FB0CF20A6010BC704710BC00207047B7
:104E6000A4190020012008807047C06968B1028839
:104E70008A429CBF4288914203D980680028F6D1BB
:104E800003E000281CBF012070470020704700008D
:104E90002DE9F047DFF8A480DFF8A4A04FF0000967
:104EA000D8F80840002CC4BFD8F8106000251DDDDC
:104EB000D8F81000C5EB051700EBC7007022001DE5
:104EC000DAF80010FBF7D2FD46F8789BD8F810000E
:104ED00005F1010500EBC70000F10C018161011D26
:104EE0000A1DC0E90F124164641EE1D1D8F8080020
:104EF0000024002810DD00BF03F03FF9D8F810208F
:104F0000C4EB041152F83110814206D081B1D8F8B7
:104F10000800641C8442EFDB4C46D8F81010C4EB48
:104F2000041001EBC000001DCAF80000BDE8F087C6
:104F3000C4EB041142F83100EFE70000481B0020E9
:104F4000A419002070B51B4919480860084604F0F0
:104F500081F8194CA068C0EB0010C500284600F08D
:104F600085FA164B20612A461B68002198474FF0AE
:104F7000FF30206003F012F9A06800250028D8BF98
:104F800070BD00BF03F0F9F82269C5EB051152F8B6
:104F90003110814208BF70BD21B16D1CA0688542EF
:104FA000F0DB70BDC5EB051142F8310070BD0000AB
:104FB000210001085C1B0020481B00201C1B002056
:104FC0002DE9FF4F85B00C46DDE912BA054601F028
:104FD000CDFA07F05BFB00EB050907F065FB00EB82
:104FE0000408002007F0BEFB002833D0DDE9077578
:104FF00001F0DAF904461A48016891F869000028BE
:1050000014BF012091F8680009FB00F608FB00F2CC
:1050100047436843CDE9022091F8680010FB04F58E
:10502000F0194119F01B401B00F060F9E8B202F0E2
:105030002DFDCDE900BADDE902133A463046FFF70F
:1050400080FB204602F022FD00F00CF807F080F90A
:105050000028CBD109B0BDE8F04F03F071B80000D3
:10506000A419002010B50AF0EBFA0448016A0448BC
:105070000068416600F10801416110BDB41A0020CA
:10508000A41900202DE9F04F89B017460C460546BB
:1050900001F06CFA07F0FAFA00EB050807F004FBE0
:1050A00000EB04094D4C206890F8691031B990F874
:1050B000680000FB08F800FB09F94743A8EB07006C
:1050C000059000F08DF8ADF8180008EB070004908B
:1050D00000F086F8ADF81C00A9EB0700039000F083
:1050E0007FF8ADF81A0009EB0700029000F078F89D
:1050F000ADF81E0006A807F035FB002863D007FBBB
:1051000007F0019007EBD770CDF80000DDE904103F
:1051100000F0ECF8DDE9000101EB60062F48DDE965
:1051200002BA0068406938B1B0F9061059454FDB42
:10513000B0F9021051454EDC01253C46012F1CDD23
:10514000A9EB05015145A8BF8B4513DB05FB05F015
:1051500004FB0402B24204DD641E04FB0402B242FA
:10516000FADC1E4B08EB0402A8EB04001B685B6E24
:105170001B6898476D1CBD42E2DB00243D1E1CDD10
:1051800009EB04015145A8BF8B4513DB04FB04F078
:1051900005FB0502B24204DD6D1E05FB0502B242AD
:1051A000FADC0E4B08EB0502A8EB05001B685B6EF2
:1051B0001B689847641CBC42E2DBFFF753FF07F013
:1051C000C7F80028A2D102F0BBFF09B0BDE8F08FFC
:1051D000B0F906B0ACE7B0F902A0ADE7A419002021
:1051E0000449096891F86810002918BF90FBF1F094
:1051F00000B27047A41900202DE9F041304D04465B
:105200000E462868002798B92E480068E86110B952
:1052100004F08BFBE86100F029F92860002808BF42
:10522000012705D0294928480860084603F012FFE5
:1052300027480068844240DBE869311B421E9142E6
:10524000C4BF2044461EA642BCBF26460127DFF845
:105250008480234BD8F80000416E4A68AA63296213
:105260001E491D4A0A6041662868EE60C5E90104CE
:10527000311B4A1C1B68002198471A48810CC5E95C
:105280000401A861D8F80000028990F8681012FBA8
:1052900001F3154A1380438913FB01F3538083897B
:1052A0005B1C4B435B1E9380C3895B1C5943491EA7
:1052B000D18042613846BDE8F08105480468BBE70B
:1052C000B41A0020EC1900200D000108D81A0020A3
:1052D000F0190020A419002045ED0008E81A00206C
:1052E0001C1B002001C0FFFFE01A0020044A1268C6
:1052F00092F8682090FBF2F091FBF2F1FFF77CBF8F
:10530000A4190020002808BF704710B5044601F01A
:105310002DF9204607F0D8FE044602F011FF204682
:1053200010BD00002DE9F041074601F01FF9002FE4
:1053300008BF002430D001F019F9384607F0C4FE48
:10534000044602F0FDFE002C26D0164D164B3A46C0
:10535000E869401CE861686B00EBC4000178491CF7
:1053600001700421686B01EBC4011B6840580021E7
:1053700000F108063046984756F8081C686B00EBA9
:10538000C1000178022904D3E96900291CBF491E24
:10539000E9610178491E017002F0D2FE2046BDE8A5
:1053A000F0810000682100201C1B0020024A1060D0
:1053B00021F003005060704728220020002808BF19
:1053C000704770B5044601F0D1F80C4D042000EB95
:1053D000C406696B8959486807F018FE6868401C64
:1053E0006860696B686A8851696B002001F8340055
:1053F0006C62BDE8704002F0A3BE0000682100208E
:10540000002808BF7047044AD16B0160002918BF0B
:105410004860D06370470000682100202DE9F0410A
:10542000064601F0A3F834680027C4B101F09EF8E5
:105430000D4D042000EBC408696B51F80810486852
:1054400007F0E4FD6868401C6860696B686A41F8B1
:105450000800686B00F834706C6202F071FE37600F
:10546000BDE8F04102F06CBE682100202DE9F0415A
:1054700004460AF001FCE01C274E20F00300051D45
:10548000306CA84288BF0546F46BBCB154F8041CCC
:10549000A94210D19CB1206800281CBF61684160FE
:1054A000606800281CBF21680160F16BA14204BF45
:1054B0002068F0632DE02468002CE7D10024F16817
:1054C000B06B00EB010858F8040CA8EB0007386833
:1054D00040B100200AF0DEFF58F8040CA8EB0007EA
:1054E0003868B0B97868A84213DB3844401B041D03
:1054F00038460AF0A1FFF068401BF060706928444C
:1055000070617868401B1CBF394607F07FFD44F886
:10551000045C2046BDE8F08168210020002140B1F4
:105520000549042202EBC000496B08584068A0F10D
:105530000C0108467047000068210020024881697C
:10554000491C816170470000682100200849CA6930
:10555000521CCA614A6B02EBC00213785B1C1370C9
:10556000496B042202EBC000085808307047000065
:10557000682100202DE9F05F0E0005464FF000087D
:1055800008BF474674D000F0F1FF304607F09CFD9D
:10559000074602F0D5FD002F18BF002D68D0364C0D
:1055A0004FF0040909EBC50A606B50F80A00406827
:1055B000A0F10C00B042B8BF064600F0D7FFE0698A
:1055C0002E4B401CE061606B324600EBC700017857
:1055D000491C0170606B09EBC701415800EBC50025
:1055E00001F1080BE169491CE1610178491C017076
:1055F000606B1B6850F80A0000F1080949465846DC
:1056000098475BF8081C606B00EBC1000178022929
:1056100004D3E16900291CBF491EE1610178491EDC
:10562000017059F8081C606B00EBC1000178022979
:1056300004D3E16900291CBF491EE1610178491EBC
:10564000017000F093FF606B50F80A10486807F093
:10565000DDFC6068401C6060616B606A41F80A00B4
:10566000606B00F83580656202F06AFD02F068FD4B
:105670003846BDE8F09F000068210020201B002074
:1056800010B500F073FF00240AF0F6FA194B1A491E
:105690000F2000BF01EBC002526CE2B101EBC00071
:1056A000406C8068C8B14268A24288BF14468068D6
:1056B00000281CBF80680028F5D1A4F10C00B0F5CB
:1056C000800F0DD983FB00204211096AA2EBE07024
:1056D00000FB01F409E0401EDCD5A4F10C00F1E769
:1056E000096A4843A3FB0010440902F029FD204643
:1056F00010BD00001F85EB51682100200248816920
:10570000491E816170470000682100200A49026833
:105710004B6B52F8082C03EBC2021378022B04D314
:10572000CB69002B1CBF5B1ECB611178491E117029
:1057300000210160084670476821002003490422C7
:1057400002EBC000496B0858083070476821002000
:10575000C2B2CBB2D21A48BF524292B202FB02F39B
:10576000C0F30722C1F3072CB2EB0C0248BF524230
:1057700092B2000CA0EB114002FB023200B20028F2
:10578000BCBF404200B280B200FB00207047000066
:105790002DE9F041002182B0084600F04DFE43F6AD
:1057A000FF76374600F0E2FE042004F0B7FB8046A7
:1057B00012484069C16C006D8D1B841B0E44074468
:1057C000ADF80050ADF80460ADF80240ADF80670D9
:1057D000684606F0C7FF48B13B4632462146284698
:1057E00003F0C2FF06F0B4FD0028F5D1404604F0F6
:1057F00095FB02F0A5FC02B0BDE8F08190190020F5
:105800002DE9F04182B01C4617460D46064600F0D1
:10581000ADFE042004F082FB804613484169C86C49
:10582000096D064407440D440C44ADF80060ADF822
:105830000470ADF80250ADF80640684606F092FFDD
:1058400048B123463A462946304603F08DFF06F01C
:105850007FFD0028F5D1404604F060FB02F070FCAB
:1058600002B0BDE8F0810000901900202DE9F04160
:1058700082B0B0F90050B0F90240B0F90460B0F95C
:10588000067000F073FE042004F048FB80461348C5
:105890004169C86C096D054406440C440F44ADF8D9
:1058A0000050ADF80460ADF80240ADF806706846EF
:1058B00006F058FF48B13B4632462146284603F0E1
:1058C00053FF06F045FD0028F5D1404604F026FBC5
:1058D00002F036FC02B0BDE8F08100009019002013
:1058E000022BA4BF002070472DE9F04106461C465C
:1058F00015460F461C20FFF7B9FD002808BFBDE87C
:10590000F081002F18BF07610BD10A4A52F824100A
:1059100039B10A681AB111461268002AFBD1096927
:10592000016184618582002101604160C0E9021645
:10593000BDE8F081D01900202DE9F04100241D467A
:10594000074688461646022B27DA1C20FFF78EFDF5
:1059500018B3B8F1000F18BFC0F810800BD1104A6F
:1059600052F8251039B10A681AB111461268002A96
:10597000FBD1096901618561868204604460C0E9E8
:105980000247040009D000F011F8E068006820B96F
:105990000448006800EB850084652046BDE8F0817E
:1059A000D0190020A4190020FFF72ABD00281CBF31
:1059B0008369022BA4BF01207047234A591C92F827
:1059C00000C08C45B8BF117010B4204C54F823109F
:1059D000002908BF44F8230030D04A682AB1114694
:1059E0005268002AFBD100292BD0C268D2F800C02F
:1059F000CA681268624503DD09680029F8D120E011
:105A0000F9B1CA681268624504BF828A012A08D1C6
:105A10000A682AB11146D26812686245F8DA00E0D5
:105A200079B14A68002A1DBF10604A68426044F894
:105A300023004860884208BF0021016010BC00209C
:105A4000704710BC01207047F6190020D0190020C3
:105A5000002808BF704770B4244D254CD0F800C012
:105A600000281CBF8669022E3ADA2A78711C8A4205
:105A7000B8BF297054F82610002908BF44F8260042
:105A80002ED04A6822B111465268002AFBD139B3A0
:105A9000C2681268CB681B68934203DD096800295D
:105AA000F8D11DE0E1B1CB681B68934204BF838A43
:105AB000012B08D10B682BB11946DB681B68934298
:105AC000F8DA00E061B14A68002A1DBF10604A6838
:105AD000426044F826004860884208BF0021016007
